{
  "abi": [
    {
      "inputs": [],
      "name": "InvalidAmount",
      "type": "error"
    },
    {
      "inputs": [],
      "name": "InvalidAmountOut",
      "type": "error"
    },
    {
      "inputs": [
        {
          "internalType": "uint256",
          "name": "qoute",
          "type": "uint256"
        },
        {
          "internalType": "uint256",
          "name": "idealQoute",
          "type": "uint256"
        }
      ],
      "name": "InvalidAmounts",
      "type": "error"
    },
    {
      "anonymous": false,
      "inputs": [
        {
          "indexed": true,
          "internalType": "uint256[]",
          "name": "qoutes",
          "type": "uint256[]"
        },
        {
          "indexed": true,
          "internalType": "address",
          "name": "poolAddress",
          "type": "address"
        }
      ],
      "name": "BestQoute",
      "type": "event"
    },
    {
      "anonymous": false,
      "inputs": [
        {
          "indexed": false,
          "internalType": "uint8",
          "name": "version",
          "type": "uint8"
        }
      ],
      "name": "Initialized",
      "type": "event"
    },
    {
      "anonymous": false,
      "inputs": [
        {
          "indexed": true,
          "internalType": "address",
          "name": "previousOwner",
          "type": "address"
        },
        {
          "indexed": true,
          "internalType": "address",
          "name": "newOwner",
          "type": "address"
        }
      ],
      "name": "OwnershipTransferred",
      "type": "event"
    },
    {
      "anonymous": false,
      "inputs": [
        {
          "indexed": false,
          "internalType": "address",
          "name": "account",
          "type": "address"
        }
      ],
      "name": "Paused",
      "type": "event"
    },
    {
      "anonymous": false,
      "inputs": [
        {
          "indexed": true,
          "internalType": "address",
          "name": "tokenIn",
          "type": "address"
        },
        {
          "indexed": true,
          "internalType": "address",
          "name": "tokenOut",
          "type": "address"
        },
        {
          "indexed": true,
          "internalType": "uint256",
          "name": "amountOut",
          "type": "uint256"
        }
      ],
      "name": "Swap",
      "type": "event"
    },
    {
      "anonymous": false,
      "inputs": [
        {
          "indexed": false,
          "internalType": "address",
          "name": "account",
          "type": "address"
        }
      ],
      "name": "Unpaused",
      "type": "event"
    },
    {
      "inputs": [
        {
          "internalType": "uint256[]",
          "name": "numbers",
          "type": "uint256[]"
        }
      ],
      "name": "calculatePercentageSplit",
      "outputs": [
        {
          "internalType": "uint256[]",
          "name": "",
          "type": "uint256[]"
        }
      ],
      "stateMutability": "pure",
      "type": "function"
    },
    {
      "inputs": [
        {
          "internalType": "uint256",
          "name": "amount",
          "type": "uint256"
        },
        {
          "internalType": "uint256",
          "name": "percent",
          "type": "uint256"
        },
        {
          "internalType": "uint256",
          "name": "total",
          "type": "uint256"
        }
      ],
      "name": "getAmount",
      "outputs": [
        {
          "internalType": "uint256",
          "name": "",
          "type": "uint256"
        }
      ],
      "stateMutability": "pure",
      "type": "function"
    },
    {
      "inputs": [
        {
          "internalType": "uint256",
          "name": "amount",
          "type": "uint256"
        },
        {
          "internalType": "uint24",
          "name": "poolFee",
          "type": "uint24"
        }
      ],
      "name": "getQouteTokenInToTokenOut",
      "outputs": [
        {
          "internalType": "uint256[]",
          "name": "",
          "type": "uint256[]"
        },
        {
          "internalType": "address",
          "name": "",
          "type": "address"
        }
      ],
      "stateMutability": "nonpayable",
      "type": "function"
    },
    {
      "inputs": [
        {
          "components": [
            {
              "internalType": "address",
              "name": "tokenIn",
              "type": "address"
            },
            {
              "internalType": "address",
              "name": "tokenOut",
              "type": "address"
            },
            {
              "internalType": "address",
              "name": "qouter",
              "type": "address"
            },
            {
              "internalType": "address",
              "name": "tokenInPool",
              "type": "address"
            },
            {
              "internalType": "address",
              "name": "tokenOutPool",
              "type": "address"
            },
            {
              "internalType": "uint24",
              "name": "poolFee",
              "type": "uint24"
            },
            {
              "internalType": "contract ISwapRouter",
              "name": "uniswap",
              "type": "address"
            },
            {
              "internalType": "contract IQuoter",
              "name": "uniswapQuoter",
              "type": "address"
            },
            {
              "internalType": "contract ISwap",
              "name": "curveSwap",
              "type": "address"
            },
            {
              "internalType": "contract IUniswapV2Router01",
              "name": "sushiSwapRouter",
              "type": "address"
            },
            {
              "internalType": "contract IProvider",
              "name": "exchangeProvider",
              "type": "address"
            },
            {
              "internalType": "contract IUniversalRouter",
              "name": "universalRouter",
              "type": "address"
            },
            {
              "internalType": "contract IPermitV2",
              "name": "permitV2",
              "type": "address"
            }
          ],
          "internalType": "struct InitParams",
          "name": "params",
          "type": "tuple"
        }
      ],
      "name": "initialize",
      "outputs": [],
      "stateMutability": "nonpayable",
      "type": "function"
    },
    {
      "inputs": [],
      "name": "owner",
      "outputs": [
        {
          "internalType": "address",
          "name": "",
          "type": "address"
        }
      ],
      "stateMutability": "view",
      "type": "function"
    },
    {
      "inputs": [],
      "name": "pause",
      "outputs": [],
      "stateMutability": "nonpayable",
      "type": "function"
    },
    {
      "inputs": [],
      "name": "paused",
      "outputs": [
        {
          "internalType": "bool",
          "name": "",
          "type": "bool"
        }
      ],
      "stateMutability": "view",
      "type": "function"
    },
    {
      "inputs": [],
      "name": "qouterParams",
      "outputs": [
        {
          "internalType": "address",
          "name": "tokenIn",
          "type": "address"
        },
        {
          "internalType": "address",
          "name": "tokenOut",
          "type": "address"
        },
        {
          "internalType": "address",
          "name": "qouter",
          "type": "address"
        },
        {
          "internalType": "address",
          "name": "tokenInPool",
          "type": "address"
        },
        {
          "internalType": "address",
          "name": "tokenOutPool",
          "type": "address"
        },
        {
          "internalType": "uint24",
          "name": "poolFee",
          "type": "uint24"
        },
        {
          "internalType": "contract ISwapRouter",
          "name": "uniswap",
          "type": "address"
        },
        {
          "internalType": "contract IQuoter",
          "name": "uniswapQuoter",
          "type": "address"
        },
        {
          "internalType": "contract ISwap",
          "name": "curveSwap",
          "type": "address"
        },
        {
          "internalType": "contract IUniswapV2Router01",
          "name": "sushiSwapRouter",
          "type": "address"
        },
        {
          "internalType": "contract IProvider",
          "name": "exchangeProvider",
          "type": "address"
        },
        {
          "internalType": "contract IUniversalRouter",
          "name": "universalRouter",
          "type": "address"
        },
        {
          "internalType": "contract IPermitV2",
          "name": "permitV2",
          "type": "address"
        }
      ],
      "stateMutability": "view",
      "type": "function"
    },
    {
      "inputs": [],
      "name": "renounceOwnership",
      "outputs": [],
      "stateMutability": "nonpayable",
      "type": "function"
    },
    {
      "inputs": [],
      "name": "swapExactETHToTokenOut",
      "outputs": [],
      "stateMutability": "payable",
      "type": "function"
    },
    {
      "inputs": [
        {
          "internalType": "address",
          "name": "newOwner",
          "type": "address"
        }
      ],
      "name": "transferOwnership",
      "outputs": [],
      "stateMutability": "nonpayable",
      "type": "function"
    },
    {
      "inputs": [],
      "name": "unpause",
      "outputs": [],
      "stateMutability": "nonpayable",
      "type": "function"
    }
  ],
  "bytecode": {
    "object": "0x608060405234801561001057600080fd5b50611fe0806100206000396000f3fe6080604052600436106100c75760003560e01c80638da5cb5b11610074578063ec7f061d1161004e578063ec7f061d14610213578063efffa58d1461021b578063f2fde38b1461033f57600080fd5b80638da5cb5b14610183578063c126897a146101b8578063d70ce67f146101e557600080fd5b80635c975abb116100a55780635c975abb14610136578063715018a6146101595780638456cb591461016e57600080fd5b80630ebbe798146100cc57806329c45cb6146100ee5780633f4ba83a14610121575b600080fd5b3480156100d857600080fd5b506100ec6100e7366004611a61565b61035f565b005b3480156100fa57600080fd5b5061010e610109366004611b5f565b61066d565b6040519081526020015b60405180910390f35b34801561012d57600080fd5b506100ec6106b0565b34801561014257600080fd5b5060335460ff166040519015158152602001610118565b34801561016557600080fd5b506100ec6106c2565b34801561017a57600080fd5b506100ec6106d4565b34801561018f57600080fd5b5060655460405173ffffffffffffffffffffffffffffffffffffffff9091168152602001610118565b3480156101c457600080fd5b506101d86101d3366004611baf565b6106e4565b6040516101189190611c80565b3480156101f157600080fd5b50610205610200366004611c9a565b6107e8565b604051610118929190611cc6565b6100ec610bee565b34801561022757600080fd5b50609754609854609954609a54609b54609c54609d54609e54609f5460a05460a15460a2546102b19b73ffffffffffffffffffffffffffffffffffffffff9081169b81169a811699811698818116987401000000000000000000000000000000000000000090910462ffffff1697908216969082169590821694908216939082169290821691168d565b6040805173ffffffffffffffffffffffffffffffffffffffff9e8f1681529c8e1660208e01529a8d169a8c019a909a52978b1660608b0152958a1660808a015262ffffff90941660a089015291881660c0880152871660e08701528616610100860152851661012085015284166101408401528316610160830152919091166101808201526101a001610118565b34801561034b57600080fd5b506100ec61035a366004611cfe565b611205565b600054610100900460ff161580801561037f5750600054600160ff909116105b806103995750303b158015610399575060005460ff166001145b61042a576040517f08c379a000000000000000000000000000000000000000000000000000000000815260206004820152602e60248201527f496e697469616c697a61626c653a20636f6e747261637420697320616c72656160448201527f647920696e697469616c697a656400000000000000000000000000000000000060648201526084015b60405180910390fd5b600080547fffffffffffffffffffffffffffffffffffffffffffffffffffffffffffffff00166001179055801561048857600080547fffffffffffffffffffffffffffffffffffffffffffffffffffffffffffff00ff166101001790555b81516097805473ffffffffffffffffffffffffffffffffffffffff9283167fffffffffffffffffffffffff0000000000000000000000000000000000000000918216179091556020840151609880549184169183169190911790556040840151609980549184169183169190911790556060840151609a80549184169183169190911790556080840151609b805460a08088015162ffffff1674010000000000000000000000000000000000000000027fffffffffffffffffff00000000000000000000000000000000000000000000009092169386169390931717905560c0850151609c805491851691841691909117905560e0850151609d8054918516918416919091179055610100850151609e8054918516918416919091179055610120850151609f8054918516918416919091179055610140850151815490841690831617905561016084015160a1805491841691831691909117905561018084015160a280549190931691161790556105fe6112bc565b61060661135b565b801561066957600080547fffffffffffffffffffffffffffffffffffffffffffffffffffffffffffff00ff169055604051600181527f7f26b83ff96e1f2b6a682f133852f6798a09c465da95921460cefb38474024989060200160405180910390a15b5050565b6000610681670de0b6b3a764000083611d4a565b670de0b6b3a76400006106948587611d4a565b61069e9190611d4a565b6106a89190611d67565b949350505050565b6106b86113fa565b6106c061147b565b565b6106ca6113fa565b6106c060006114f8565b6106dc6113fa565b6106c061156f565b6060600080835167ffffffffffffffff81111561070357610703611974565b60405190808252806020026020018201604052801561072c578160200160208202803683370190505b5084519091506000905b808210156107705785828151811061075057610750611da2565b6020026020010151846107639190611dd1565b9350816001019150610736565b600091505b808210156107de5783670de0b6b3a764000087848151811061079957610799611da2565b60200260200101516107ab9190611d4a565b6107b59190611d67565b8383815181106107c7576107c7611da2565b602002602001018181525050816001019150610775565b5090949350505050565b609d546097546098546040517ff7729d4300000000000000000000000000000000000000000000000000000000815273ffffffffffffffffffffffffffffffffffffffff9283166004820152908216602482015262ffffff84166044820152606481018590526000608482018190526060939092839291169063f7729d439060a4016020604051808303816000875af1158015610889573d6000803e3d6000fd5b505050506040513d601f19601f820116820180604052508101906108ad9190611de4565b609e546097546098546040517f4e21df7500000000000000000000000000000000000000000000000000000000815273ffffffffffffffffffffffffffffffffffffffff928316600482015290821660248201526044810189905292935060009283929190911690634e21df759060640160408051808303816000875af115801561093c573d6000803e3d6000fd5b505050506040513d601f19601f820116820180604052508101906109609190611dfd565b604080516002808252606082018352939550919350600092906020830190803683375050609754825192935073ffffffffffffffffffffffffffffffffffffffff16918391506000906109b5576109b5611da2565b73ffffffffffffffffffffffffffffffffffffffff92831660209182029290920101526098548251911690829060019081106109f3576109f3611da2565b73ffffffffffffffffffffffffffffffffffffffff9283166020918202929092010152609f546040517fd06ca61f000000000000000000000000000000000000000000000000000000008152600092919091169063d06ca61f90610a5d908c908690600401611e71565b600060405180830381865afa158015610a7a573d6000803e3d6000fd5b505050506040513d6000823e601f3d9081017fffffffffffffffffffffffffffffffffffffffffffffffffffffffffffffffe0168201604052610ac09190810190611e8a565b9050600081600181518110610ad757610ad7611da2565b602002602001015190506000600367ffffffffffffffff811115610afd57610afd611974565b604051908082528060200260200182016040528015610b26578160200160208202803683370190505b5090508181600081518110610b3d57610b3d611da2565b6020026020010181815250508481600181518110610b5d57610b5d611da2565b6020026020010181815250508681600281518110610b7d57610b7d611da2565b6020026020010181815250508573ffffffffffffffffffffffffffffffffffffffff1681604051610bae9190611f10565b604051908190038120907fe9cda41294389ae04d7c338828fa3884d5ff08cf3e0f8135b1a3bb98255dcc8f90600090a39a94995093975050505050505050565b610bf66115ca565b34600003610c30576040517f2c5211c600000000000000000000000000000000000000000000000000000000815260040160405180910390fd5b609754604080517fd0e30db00000000000000000000000000000000000000000000000000000000081529051339273ffffffffffffffffffffffffffffffffffffffff169163d0e30db091349160048082019260009290919082900301818588803b158015610c9e57600080fd5b505af1158015610cb2573d6000803e3d6000fd5b5050609b546060935060009250610ce89150349074010000000000000000000000000000000000000000900462ffffff166107e8565b90925090506000610cf8836106e4565b90506000610d213483600081518110610d1357610d13611da2565b60200260200101513461066d565b90506000610d3c3484600181518110610d1357610d13611da2565b90506000610d573485600281518110610d1357610d13611da2565b609754609c54919250610d849173ffffffffffffffffffffffffffffffffffffffff918216911683611637565b604080516101008101825260975473ffffffffffffffffffffffffffffffffffffffff908116825260985481166020830152609b5474010000000000000000000000000000000000000000900462ffffff1692820192909252908816606082015260009060808101610df742603c611dd1565b81526020808201859052600160408084019190915260006060938401819052609c5482517f414bf389000000000000000000000000000000000000000000000000000000008152865173ffffffffffffffffffffffffffffffffffffffff908116600483015294870151851660248201529286015162ffffff16604484015293850151831660648301526080850151608483015260a085015160a483015260c085015160c483015260e0850151831660e483015293945091169063414bf38990610104016020604051808303816000875af1158015610eda573d6000803e3d6000fd5b505050506040513d601f19601f82011682018060405250810190610efe9190611de4565b609754609e54919250610f2b9173ffffffffffffffffffffffffffffffffffffffff918216911686611637565b609e54609754609854604080517f1a4c1ca300000000000000000000000000000000000000000000000000000000815273ffffffffffffffffffffffffffffffffffffffff8c811660048301529384166024820152918316604483015260648201889052600160848301523360a4830152516000939290921691631a4c1ca39160c480820192602092909190829003018187875af1158015610fd1573d6000803e3d6000fd5b505050506040513d601f19601f82011682018060405250810190610ff59190611de4565b609754609f549192506110229173ffffffffffffffffffffffffffffffffffffffff918216911688611637565b6040805160028082526060820183526000926020830190803683375050609754825192935073ffffffffffffffffffffffffffffffffffffffff169183915060009061107057611070611da2565b73ffffffffffffffffffffffffffffffffffffffff92831660209182029290920101526098548251911690829060019081106110ae576110ae611da2565b73ffffffffffffffffffffffffffffffffffffffff9283166020918202929092010152609f54600091166338ed173989600185336110ed42603c611dd1565b6040518663ffffffff1660e01b815260040161110d959493929190611f46565b6000604051808303816000875af115801561112c573d6000803e3d6000fd5b505050506040513d6000823e601f3d9081017fffffffffffffffffffffffffffffffffffffffffffffffffffffffffffffffe01682016040526111729190810190611e8a565b905060008160008151811061118957611189611da2565b602002602001015190508085856111a09190611dd1565b6111aa9190611dd1565b60985460975460405173ffffffffffffffffffffffffffffffffffffffff92831692909116907fea368a40e9570069bb8e6511d668293ad2e1f03b0d982431fd223de9f3b70ca690600090a450505050505050505050505050565b61120d6113fa565b73ffffffffffffffffffffffffffffffffffffffff81166112b0576040517f08c379a000000000000000000000000000000000000000000000000000000000815260206004820152602660248201527f4f776e61626c653a206e6577206f776e657220697320746865207a65726f206160448201527f64647265737300000000000000000000000000000000000000000000000000006064820152608401610421565b6112b9816114f8565b50565b600054610100900460ff16611353576040517f08c379a000000000000000000000000000000000000000000000000000000000815260206004820152602b60248201527f496e697469616c697a61626c653a20636f6e7472616374206973206e6f74206960448201527f6e697469616c697a696e670000000000000000000000000000000000000000006064820152608401610421565b6106c06117a7565b600054610100900460ff166113f2576040517f08c379a000000000000000000000000000000000000000000000000000000000815260206004820152602b60248201527f496e697469616c697a61626c653a20636f6e7472616374206973206e6f74206960448201527f6e697469616c697a696e670000000000000000000000000000000000000000006064820152608401610421565b6106c0611847565b60655473ffffffffffffffffffffffffffffffffffffffff1633146106c0576040517f08c379a000000000000000000000000000000000000000000000000000000000815260206004820181905260248201527f4f776e61626c653a2063616c6c6572206973206e6f7420746865206f776e65726044820152606401610421565b611483611908565b603380547fffffffffffffffffffffffffffffffffffffffffffffffffffffffffffffff001690557f5db9ee0a495bf2e6ff9c91a7834c1ba4fdd244a5e8aa4e537bd38aeae4b073aa335b60405173ffffffffffffffffffffffffffffffffffffffff909116815260200160405180910390a1565b6065805473ffffffffffffffffffffffffffffffffffffffff8381167fffffffffffffffffffffffff0000000000000000000000000000000000000000831681179093556040519116919082907f8be0079c531659141344cd1fd0a4f28419497f9722a3daafe3b4186f6b6457e090600090a35050565b6115776115ca565b603380547fffffffffffffffffffffffffffffffffffffffffffffffffffffffffffffff001660011790557f62e78cea01bee320cd4e420270b5ea74000d11b0c9f74754ebdbfc544b05a2586114ce3390565b60335460ff16156106c0576040517f08c379a000000000000000000000000000000000000000000000000000000000815260206004820152601060248201527f5061757361626c653a20706175736564000000000000000000000000000000006044820152606401610421565b6040805173ffffffffffffffffffffffffffffffffffffffff8481166024830152604480830185905283518084039091018152606490920183526020820180517bffffffffffffffffffffffffffffffffffffffffffffffffffffffff167f095ea7b30000000000000000000000000000000000000000000000000000000017905291516000928392908716916116ce9190611f8f565b6000604051808303816000865af19150503d806000811461170b576040519150601f19603f3d011682016040523d82523d6000602084013e611710565b606091505b509150915081801561173a57508051158061173a57508080602001905181019061173a9190611fbe565b6117a0576040517f08c379a000000000000000000000000000000000000000000000000000000000815260206004820152600260248201527f53410000000000000000000000000000000000000000000000000000000000006044820152606401610421565b5050505050565b600054610100900460ff1661183e576040517f08c379a000000000000000000000000000000000000000000000000000000000815260206004820152602b60248201527f496e697469616c697a61626c653a20636f6e7472616374206973206e6f74206960448201527f6e697469616c697a696e670000000000000000000000000000000000000000006064820152608401610421565b6106c0336114f8565b600054610100900460ff166118de576040517f08c379a000000000000000000000000000000000000000000000000000000000815260206004820152602b60248201527f496e697469616c697a61626c653a20636f6e7472616374206973206e6f74206960448201527f6e697469616c697a696e670000000000000000000000000000000000000000006064820152608401610421565b603380547fffffffffffffffffffffffffffffffffffffffffffffffffffffffffffffff00169055565b60335460ff166106c0576040517f08c379a000000000000000000000000000000000000000000000000000000000815260206004820152601460248201527f5061757361626c653a206e6f74207061757365640000000000000000000000006044820152606401610421565b7f4e487b7100000000000000000000000000000000000000000000000000000000600052604160045260246000fd5b6040516101a0810167ffffffffffffffff811182821017156119c7576119c7611974565b60405290565b604051601f82017fffffffffffffffffffffffffffffffffffffffffffffffffffffffffffffffe016810167ffffffffffffffff81118282101715611a1457611a14611974565b604052919050565b73ffffffffffffffffffffffffffffffffffffffff811681146112b957600080fd5b8035611a4981611a1c565b919050565b803562ffffff81168114611a4957600080fd5b60006101a08284031215611a7457600080fd5b611a7c6119a3565b611a8583611a3e565b8152611a9360208401611a3e565b6020820152611aa460408401611a3e565b6040820152611ab560608401611a3e565b6060820152611ac660808401611a3e565b6080820152611ad760a08401611a4e565b60a0820152611ae860c08401611a3e565b60c0820152611af960e08401611a3e565b60e0820152610100611b0c818501611a3e565b90820152610120611b1e848201611a3e565b90820152610140611b30848201611a3e565b90820152610160611b42848201611a3e565b90820152610180611b54848201611a3e565b908201529392505050565b600080600060608486031215611b7457600080fd5b505081359360208301359350604090920135919050565b600067ffffffffffffffff821115611ba557611ba5611974565b5060051b60200190565b60006020808385031215611bc257600080fd5b823567ffffffffffffffff811115611bd957600080fd5b8301601f81018513611bea57600080fd5b8035611bfd611bf882611b8b565b6119cd565b81815260059190911b82018301908381019087831115611c1c57600080fd5b928401925b82841015611c3a57833582529284019290840190611c21565b979650505050505050565b600081518084526020808501945080840160005b83811015611c7557815187529582019590820190600101611c59565b509495945050505050565b602081526000611c936020830184611c45565b9392505050565b60008060408385031215611cad57600080fd5b82359150611cbd60208401611a4e565b90509250929050565b604081526000611cd96040830185611c45565b905073ffffffffffffffffffffffffffffffffffffffff831660208301529392505050565b600060208284031215611d1057600080fd5b8135611c9381611a1c565b7f4e487b7100000000000000000000000000000000000000000000000000000000600052601160045260246000fd5b8082028115828204841417611d6157611d61611d1b565b92915050565b600082611d9d577f4e487b7100000000000000000000000000000000000000000000000000000000600052601260045260246000fd5b500490565b7f4e487b7100000000000000000000000000000000000000000000000000000000600052603260045260246000fd5b80820180821115611d6157611d61611d1b565b600060208284031215611df657600080fd5b5051919050565b60008060408385031215611e1057600080fd5b8251611e1b81611a1c565b6020939093015192949293505050565b600081518084526020808501945080840160005b83811015611c7557815173ffffffffffffffffffffffffffffffffffffffff1687529582019590820190600101611e3f565b8281526040602082015260006106a86040830184611e2b565b60006020808385031215611e9d57600080fd5b825167ffffffffffffffff811115611eb457600080fd5b8301601f81018513611ec557600080fd5b8051611ed3611bf882611b8b565b81815260059190911b82018301908381019087831115611ef257600080fd5b928401925b82841015611c3a57835182529284019290840190611ef7565b815160009082906020808601845b83811015611f3a57815185529382019390820190600101611f1e565b50929695505050505050565b85815284602082015260a060408201526000611f6560a0830186611e2b565b73ffffffffffffffffffffffffffffffffffffffff94909416606083015250608001529392505050565b6000825160005b81811015611fb05760208186018101518583015201611f96565b506000920191825250919050565b600060208284031215611fd057600080fd5b81518015158114611c9357600080fd",
    "linkReferences": {}
  },
  "methodIdentifiers": {
    "calculatePercentageSplit(uint256[])": "c126897a",
    "getAmount(uint256,uint256,uint256)": "29c45cb6",
    "getQouteTokenInToTokenOut(uint256,uint24)": "d70ce67f",
    "initialize((address,address,address,address,address,uint24,address,address,address,address,address,address,address))": "0ebbe798",
    "owner()": "8da5cb5b",
    "pause()": "8456cb59",
    "paused()": "5c975abb",
    "qouterParams()": "efffa58d",
    "renounceOwnership()": "715018a6",
    "swapExactETHToTokenOut()": "ec7f061d",
    "transferOwnership(address)": "f2fde38b",
    "unpause()": "3f4ba83a"
  },
  "id": 36
}