{
  "abi": [
    {
      "inputs": [],
      "name": "InvalidAmount",
      "type": "error"
    },
    {
      "inputs": [],
      "name": "InvalidAmountOut",
      "type": "error"
    },
    {
      "inputs": [],
      "name": "InvalidAmounts",
      "type": "error"
    },
    {
      "anonymous": false,
      "inputs": [
        {
          "indexed": false,
          "internalType": "uint256[]",
          "name": "qoutes",
          "type": "uint256[]"
        },
        {
          "indexed": true,
          "internalType": "address",
          "name": "poolAddress",
          "type": "address"
        }
      ],
      "name": "BestQoute",
      "type": "event"
    },
    {
      "anonymous": false,
      "inputs": [
        {
          "indexed": false,
          "internalType": "uint8",
          "name": "version",
          "type": "uint8"
        }
      ],
      "name": "Initialized",
      "type": "event"
    },
    {
      "anonymous": false,
      "inputs": [
        {
          "indexed": true,
          "internalType": "address",
          "name": "previousOwner",
          "type": "address"
        },
        {
          "indexed": true,
          "internalType": "address",
          "name": "newOwner",
          "type": "address"
        }
      ],
      "name": "OwnershipTransferred",
      "type": "event"
    },
    {
      "anonymous": false,
      "inputs": [
        {
          "indexed": false,
          "internalType": "address",
          "name": "account",
          "type": "address"
        }
      ],
      "name": "Paused",
      "type": "event"
    },
    {
      "anonymous": false,
      "inputs": [
        {
          "indexed": false,
          "internalType": "address",
          "name": "account",
          "type": "address"
        }
      ],
      "name": "Unpaused",
      "type": "event"
    },
    {
      "inputs": [
        {
          "internalType": "uint256",
          "name": "amount",
          "type": "uint256"
        },
        {
          "internalType": "uint24",
          "name": "poolFee",
          "type": "uint24"
        }
      ],
      "name": "getQouteTokenInToTokenOut",
      "outputs": [
        {
          "internalType": "uint256[]",
          "name": "",
          "type": "uint256[]"
        },
        {
          "internalType": "address",
          "name": "",
          "type": "address"
        }
      ],
      "stateMutability": "nonpayable",
      "type": "function"
    },
    {
      "inputs": [
        {
          "components": [
            {
              "internalType": "address",
              "name": "tokenIn",
              "type": "address"
            },
            {
              "internalType": "address",
              "name": "tokenOut",
              "type": "address"
            },
            {
              "internalType": "address",
              "name": "qouter",
              "type": "address"
            },
            {
              "internalType": "address",
              "name": "tokenInPool",
              "type": "address"
            },
            {
              "internalType": "address",
              "name": "tokenOutPool",
              "type": "address"
            },
            {
              "internalType": "uint24",
              "name": "poolFee",
              "type": "uint24"
            },
            {
              "internalType": "contract ISwapRouter",
              "name": "uniswap",
              "type": "address"
            },
            {
              "internalType": "contract IQuoter",
              "name": "uniswapQuoter",
              "type": "address"
            },
            {
              "internalType": "contract ISwap",
              "name": "curveSwap",
              "type": "address"
            },
            {
              "internalType": "contract IUniswapV2Router01",
              "name": "sushiSwapRouter",
              "type": "address"
            },
            {
              "internalType": "contract IProvider",
              "name": "exchangeProvider",
              "type": "address"
            }
          ],
          "internalType": "struct InitParams",
          "name": "params",
          "type": "tuple"
        }
      ],
      "name": "initialize",
      "outputs": [],
      "stateMutability": "nonpayable",
      "type": "function"
    },
    {
      "inputs": [],
      "name": "owner",
      "outputs": [
        {
          "internalType": "address",
          "name": "",
          "type": "address"
        }
      ],
      "stateMutability": "view",
      "type": "function"
    },
    {
      "inputs": [],
      "name": "pause",
      "outputs": [],
      "stateMutability": "nonpayable",
      "type": "function"
    },
    {
      "inputs": [],
      "name": "paused",
      "outputs": [
        {
          "internalType": "bool",
          "name": "",
          "type": "bool"
        }
      ],
      "stateMutability": "view",
      "type": "function"
    },
    {
      "inputs": [],
      "name": "qouterParams",
      "outputs": [
        {
          "internalType": "address",
          "name": "tokenIn",
          "type": "address"
        },
        {
          "internalType": "address",
          "name": "tokenOut",
          "type": "address"
        },
        {
          "internalType": "address",
          "name": "qouter",
          "type": "address"
        },
        {
          "internalType": "address",
          "name": "tokenInPool",
          "type": "address"
        },
        {
          "internalType": "address",
          "name": "tokenOutPool",
          "type": "address"
        },
        {
          "internalType": "uint24",
          "name": "poolFee",
          "type": "uint24"
        },
        {
          "internalType": "contract ISwapRouter",
          "name": "uniswap",
          "type": "address"
        },
        {
          "internalType": "contract IQuoter",
          "name": "uniswapQuoter",
          "type": "address"
        },
        {
          "internalType": "contract ISwap",
          "name": "curveSwap",
          "type": "address"
        },
        {
          "internalType": "contract IUniswapV2Router01",
          "name": "sushiSwapRouter",
          "type": "address"
        },
        {
          "internalType": "contract IProvider",
          "name": "exchangeProvider",
          "type": "address"
        }
      ],
      "stateMutability": "view",
      "type": "function"
    },
    {
      "inputs": [],
      "name": "renounceOwnership",
      "outputs": [],
      "stateMutability": "nonpayable",
      "type": "function"
    },
    {
      "inputs": [
        {
          "internalType": "enum PROTOCOL",
          "name": "swapConfig",
          "type": "uint8"
        }
      ],
      "name": "swapExactETHToTokenOut",
      "outputs": [
        {
          "internalType": "uint256",
          "name": "amountOut",
          "type": "uint256"
        }
      ],
      "stateMutability": "payable",
      "type": "function"
    },
    {
      "inputs": [
        {
          "internalType": "address",
          "name": "newOwner",
          "type": "address"
        }
      ],
      "name": "transferOwnership",
      "outputs": [],
      "stateMutability": "nonpayable",
      "type": "function"
    },
    {
      "inputs": [],
      "name": "unpause",
      "outputs": [],
      "stateMutability": "nonpayable",
      "type": "function"
    }
  ],
  "bytecode": {
    "object": "0x608060405234801561001057600080fd5b50611cb8806100206000396000f3fe6080604052600436106100b15760003560e01c8063b8640ca811610069578063d70ce67f1161004e578063d70ce67f14610195578063efffa58d146101c3578063f2fde38b146102c857600080fd5b8063b8640ca814610154578063cf99237f1461017557600080fd5b8063715018a61161009a578063715018a6146100f55780638456cb591461010a5780638da5cb5b1461011f57600080fd5b80633f4ba83a146100b65780635c975abb146100cd575b600080fd5b3480156100c257600080fd5b506100cb6102e8565b005b3480156100d957600080fd5b5060335460ff1660405190151581526020015b60405180910390f35b34801561010157600080fd5b506100cb6102fa565b34801561011657600080fd5b506100cb61030c565b34801561012b57600080fd5b5060655460405173ffffffffffffffffffffffffffffffffffffffff90911681526020016100ec565b61016761016236600461176e565b61031c565b6040519081526020016100ec565b34801561018157600080fd5b506100cb610190366004611883565b6108d8565b3480156101a157600080fd5b506101b56101b036600461195d565b610bbf565b6040516100ec9291906119c4565b3480156101cf57600080fd5b50609754609854609954609a54609b54609c54609d54609e54609f5460a05461024b9973ffffffffffffffffffffffffffffffffffffffff90811699811698811697811696818116967401000000000000000000000000000000000000000090910462ffffff169590821694908216939082169290821691168b565b6040805173ffffffffffffffffffffffffffffffffffffffff9c8d1681529a8c1660208c0152988b16988a01989098529589166060890152938816608088015262ffffff90921660a0870152861660c0860152851660e08501528416610100840152831661012083015291909116610140820152610160016100ec565b3480156102d457600080fd5b506100cb6102e33660046119fc565b610fff565b6102f06110b6565b6102f8611137565b565b6103026110b6565b6102f860006111b4565b6103146110b6565b6102f861122b565b6000610326611286565b34600003610360576040517f2c5211c600000000000000000000000000000000000000000000000000000000815260040160405180910390fd5b609754604080517fd0e30db00000000000000000000000000000000000000000000000000000000081529051349273ffffffffffffffffffffffffffffffffffffffff169163d0e30db091849160048082019260009290919082900301818588803b1580156103ce57600080fd5b505af11580156103e2573d6000803e3d6000fd5b50600093506103f092505050565b83600381111561040257610402611a19565b036105ad57609754609c546104319173ffffffffffffffffffffffffffffffffffffffff9081169116836112f3565b604080516101008101825260975473ffffffffffffffffffffffffffffffffffffffff9081168252609854166020820152609b5474010000000000000000000000000000000000000000900462ffffff1691810191909152336060820152600090608081016104a142603c611a48565b8152602080820185905260006040808401829052606093840191909152609c5481517f414bf389000000000000000000000000000000000000000000000000000000008152855173ffffffffffffffffffffffffffffffffffffffff908116600483015293860151841660248201529185015162ffffff16604483015292840151821660648201526080840151608482015260a084015160a482015260c084015160c482015260e0840151821660e4820152929350169063414bf38990610104016020604051808303816000875af1158015610581573d6000803e3d6000fd5b505050506040513d601f19601f820116820180604052508101906105a59190611a88565b925050610898565b60028360038111156105c1576105c1611a19565b036106c157609754609e546105f09173ffffffffffffffffffffffffffffffffffffffff9081169116836112f3565b609e54609b54609754609854604080517f1a4c1ca300000000000000000000000000000000000000000000000000000000815273ffffffffffffffffffffffffffffffffffffffff94851660048201529284166024840152908316604483015260648201859052600160848301523360a4830152519190921691631a4c1ca39160c480830192602092919082900301816000875af1158015610696573d6000803e3d6000fd5b505050506040513d601f19601f820116820180604052508101906106ba9190611a88565b9150610898565b609754609f546106eb9173ffffffffffffffffffffffffffffffffffffffff9081169116836112f3565b6040805160028082526060820183526000926020830190803683375050609754825192935073ffffffffffffffffffffffffffffffffffffffff169183915060009061073957610739611aa1565b73ffffffffffffffffffffffffffffffffffffffff928316602091820292909201015260985482519116908290600190811061077757610777611aa1565b73ffffffffffffffffffffffffffffffffffffffff9283166020918202929092010152609f54600091166338ed173984600185336107b642603c611a48565b6040518663ffffffff1660e01b81526004016107d6959493929190611b16565b6000604051808303816000875af11580156107f5573d6000803e3d6000fd5b505050506040513d6000823e601f3d9081017fffffffffffffffffffffffffffffffffffffffffffffffffffffffffffffffe016820160405261083b9190810190611b5f565b90508051600003610878576040517fd856fc5a00000000000000000000000000000000000000000000000000000000815260040160405180910390fd5b8060008151811061088b5761088b611aa1565b6020026020010151935050505b600082116108d2576040517f4e969c5800000000000000000000000000000000000000000000000000000000815260040160405180910390fd5b50919050565b600054610100900460ff16158080156108f85750600054600160ff909116105b806109125750303b158015610912575060005460ff166001145b6109a3576040517f08c379a000000000000000000000000000000000000000000000000000000000815260206004820152602e60248201527f496e697469616c697a61626c653a20636f6e747261637420697320616c72656160448201527f647920696e697469616c697a656400000000000000000000000000000000000060648201526084015b60405180910390fd5b600080547fffffffffffffffffffffffffffffffffffffffffffffffffffffffffffffff001660011790558015610a0157600080547fffffffffffffffffffffffffffffffffffffffffffffffffffffffffffff00ff166101001790555b8151609780547fffffffffffffffffffffffff000000000000000000000000000000000000000090811673ffffffffffffffffffffffffffffffffffffffff93841617909155602084015160988054831691841691909117905560408401516099805483169184169190911790556060840151609a805483169184169190911790556080840151609b805460a0808801519386167fffffffffffffffffff0000000000000000000000000000000000000000000000909216919091177401000000000000000000000000000000000000000062ffffff9094169390930292909217905560c0850151609c8054841691851691909117905560e0850151609d80548416918516919091179055610100850151609e80548416918516919091179055610120850151609f80548416918516919091179055610140850151815490921691909216179055610b50611463565b610b58611502565b8015610bbb57600080547fffffffffffffffffffffffffffffffffffffffffffffffffffffffffffff00ff169055604051600181527f7f26b83ff96e1f2b6a682f133852f6798a09c465da95921460cefb38474024989060200160405180910390a15b5050565b609854609754609d546040517ff7729d4300000000000000000000000000000000000000000000000000000000815273ffffffffffffffffffffffffffffffffffffffff938416600482018190529284166024820181905262ffffff8616604483015260648201879052600060848301819052606095909493919287928692839291169063f7729d439060a4016020604051808303816000875af1158015610c6b573d6000803e3d6000fd5b505050506040513d601f19601f82011682018060405250810190610c8f9190611a88565b609e546097546098546040517f4e21df7500000000000000000000000000000000000000000000000000000000815273ffffffffffffffffffffffffffffffffffffffff92831660048201529082166024820152604481018d905292935060009283929190911690634e21df759060640160408051808303816000875af1158015610d1e573d6000803e3d6000fd5b505050506040513d601f19601f82011682018060405250810190610d429190611c05565b604080516002808252606082018352939550919350600092906020830190803683375050609754825192935073ffffffffffffffffffffffffffffffffffffffff1691839150600090610d9757610d97611aa1565b73ffffffffffffffffffffffffffffffffffffffff9283166020918202929092010152609854825191169082906001908110610dd557610dd5611aa1565b602002602001019073ffffffffffffffffffffffffffffffffffffffff16908173ffffffffffffffffffffffffffffffffffffffff16815250506000609760080160009054906101000a900473ffffffffffffffffffffffffffffffffffffffff1673ffffffffffffffffffffffffffffffffffffffff1663d06ca61f8e846040518363ffffffff1660e01b8152600401610e71929190611c33565b600060405180830381865afa158015610e8e573d6000803e3d6000fd5b505050506040513d6000823e601f3d9081017fffffffffffffffffffffffffffffffffffffffffffffffffffffffffffffffe0168201604052610ed49190810190611b5f565b9050600081600181518110610eeb57610eeb611aa1565b602002602001015190506000600367ffffffffffffffff811115610f1157610f11611796565b604051908082528060200260200182016040528015610f3a578160200160208202803683370190505b5090508181600081518110610f5157610f51611aa1565b6020026020010181815250508481600181518110610f7157610f71611aa1565b6020026020010181815250508681600281518110610f9157610f91611aa1565b6020026020010181815250508573ffffffffffffffffffffffffffffffffffffffff167fe9cda41294389ae04d7c338828fa3884d5ff08cf3e0f8135b1a3bb98255dcc8f82604051610fe39190611c54565b60405180910390a29e949d50939b505050505050505050505050565b6110076110b6565b73ffffffffffffffffffffffffffffffffffffffff81166110aa576040517f08c379a000000000000000000000000000000000000000000000000000000000815260206004820152602660248201527f4f776e61626c653a206e6577206f776e657220697320746865207a65726f206160448201527f6464726573730000000000000000000000000000000000000000000000000000606482015260840161099a565b6110b3816111b4565b50565b60655473ffffffffffffffffffffffffffffffffffffffff1633146102f8576040517f08c379a000000000000000000000000000000000000000000000000000000000815260206004820181905260248201527f4f776e61626c653a2063616c6c6572206973206e6f7420746865206f776e6572604482015260640161099a565b61113f6115a1565b603380547fffffffffffffffffffffffffffffffffffffffffffffffffffffffffffffff001690557f5db9ee0a495bf2e6ff9c91a7834c1ba4fdd244a5e8aa4e537bd38aeae4b073aa335b60405173ffffffffffffffffffffffffffffffffffffffff909116815260200160405180910390a1565b6065805473ffffffffffffffffffffffffffffffffffffffff8381167fffffffffffffffffffffffff0000000000000000000000000000000000000000831681179093556040519116919082907f8be0079c531659141344cd1fd0a4f28419497f9722a3daafe3b4186f6b6457e090600090a35050565b611233611286565b603380547fffffffffffffffffffffffffffffffffffffffffffffffffffffffffffffff001660011790557f62e78cea01bee320cd4e420270b5ea74000d11b0c9f74754ebdbfc544b05a25861118a3390565b60335460ff16156102f8576040517f08c379a000000000000000000000000000000000000000000000000000000000815260206004820152601060248201527f5061757361626c653a2070617573656400000000000000000000000000000000604482015260640161099a565b6040805173ffffffffffffffffffffffffffffffffffffffff8481166024830152604480830185905283518084039091018152606490920183526020820180517bffffffffffffffffffffffffffffffffffffffffffffffffffffffff167f095ea7b300000000000000000000000000000000000000000000000000000000179052915160009283929087169161138a9190611c67565b6000604051808303816000865af19150503d80600081146113c7576040519150601f19603f3d011682016040523d82523d6000602084013e6113cc565b606091505b50915091508180156113f65750805115806113f65750808060200190518101906113f69190611c96565b61145c576040517f08c379a000000000000000000000000000000000000000000000000000000000815260206004820152600260248201527f5341000000000000000000000000000000000000000000000000000000000000604482015260640161099a565b5050505050565b600054610100900460ff166114fa576040517f08c379a000000000000000000000000000000000000000000000000000000000815260206004820152602b60248201527f496e697469616c697a61626c653a20636f6e7472616374206973206e6f74206960448201527f6e697469616c697a696e67000000000000000000000000000000000000000000606482015260840161099a565b6102f861160d565b600054610100900460ff16611599576040517f08c379a000000000000000000000000000000000000000000000000000000000815260206004820152602b60248201527f496e697469616c697a61626c653a20636f6e7472616374206973206e6f74206960448201527f6e697469616c697a696e67000000000000000000000000000000000000000000606482015260840161099a565b6102f86116ad565b60335460ff166102f8576040517f08c379a000000000000000000000000000000000000000000000000000000000815260206004820152601460248201527f5061757361626c653a206e6f7420706175736564000000000000000000000000604482015260640161099a565b600054610100900460ff166116a4576040517f08c379a000000000000000000000000000000000000000000000000000000000815260206004820152602b60248201527f496e697469616c697a61626c653a20636f6e7472616374206973206e6f74206960448201527f6e697469616c697a696e67000000000000000000000000000000000000000000606482015260840161099a565b6102f8336111b4565b600054610100900460ff16611744576040517f08c379a000000000000000000000000000000000000000000000000000000000815260206004820152602b60248201527f496e697469616c697a61626c653a20636f6e7472616374206973206e6f74206960448201527f6e697469616c697a696e67000000000000000000000000000000000000000000606482015260840161099a565b603380547fffffffffffffffffffffffffffffffffffffffffffffffffffffffffffffff00169055565b60006020828403121561178057600080fd5b81356004811061178f57600080fd5b9392505050565b7f4e487b7100000000000000000000000000000000000000000000000000000000600052604160045260246000fd5b604051610160810167ffffffffffffffff811182821017156117e9576117e9611796565b60405290565b604051601f82017fffffffffffffffffffffffffffffffffffffffffffffffffffffffffffffffe016810167ffffffffffffffff8111828210171561183657611836611796565b604052919050565b73ffffffffffffffffffffffffffffffffffffffff811681146110b357600080fd5b803561186b8161183e565b919050565b803562ffffff8116811461186b57600080fd5b6000610160828403121561189657600080fd5b61189e6117c5565b6118a783611860565b81526118b560208401611860565b60208201526118c660408401611860565b60408201526118d760608401611860565b60608201526118e860808401611860565b60808201526118f960a08401611870565b60a082015261190a60c08401611860565b60c082015261191b60e08401611860565b60e082015261010061192e818501611860565b90820152610120611940848201611860565b90820152610140611952848201611860565b908201529392505050565b6000806040838503121561197057600080fd5b8235915061198060208401611870565b90509250929050565b600081518084526020808501945080840160005b838110156119b95781518752958201959082019060010161199d565b509495945050505050565b6040815260006119d76040830185611989565b905073ffffffffffffffffffffffffffffffffffffffff831660208301529392505050565b600060208284031215611a0e57600080fd5b813561178f8161183e565b7f4e487b7100000000000000000000000000000000000000000000000000000000600052602160045260246000fd5b80820180821115611a82577f4e487b7100000000000000000000000000000000000000000000000000000000600052601160045260246000fd5b92915050565b600060208284031215611a9a57600080fd5b5051919050565b7f4e487b7100000000000000000000000000000000000000000000000000000000600052603260045260246000fd5b600081518084526020808501945080840160005b838110156119b957815173ffffffffffffffffffffffffffffffffffffffff1687529582019590820190600101611ae4565b85815284602082015260a060408201526000611b3560a0830186611ad0565b73ffffffffffffffffffffffffffffffffffffffff94909416606083015250608001529392505050565b60006020808385031215611b7257600080fd5b825167ffffffffffffffff80821115611b8a57600080fd5b818501915085601f830112611b9e57600080fd5b815181811115611bb057611bb0611796565b8060051b9150611bc18483016117ef565b8181529183018401918481019088841115611bdb57600080fd5b938501935b83851015611bf957845182529385019390850190611be0565b98975050505050505050565b60008060408385031215611c1857600080fd5b8251611c238161183e565b6020939093015192949293505050565b828152604060208201526000611c4c6040830184611ad0565b949350505050565b60208152600061178f6020830184611989565b6000825160005b81811015611c885760208186018101518583015201611c6e565b506000920191825250919050565b600060208284031215611ca857600080fd5b8151801515811461178f57600080fd",
    "linkReferences": {}
  },
  "methodIdentifiers": {
    "getQouteTokenInToTokenOut(uint256,uint24)": "d70ce67f",
    "initialize((address,address,address,address,address,uint24,address,address,address,address,address))": "cf99237f",
    "owner()": "8da5cb5b",
    "pause()": "8456cb59",
    "paused()": "5c975abb",
    "qouterParams()": "efffa58d",
    "renounceOwnership()": "715018a6",
    "swapExactETHToTokenOut(uint8)": "b8640ca8",
    "transferOwnership(address)": "f2fde38b",
    "unpause()": "3f4ba83a"
  },
  "id": 33
}