{
  "abi": [
    {
      "inputs": [],
      "name": "InvalidAmount",
      "type": "error"
    },
    {
      "inputs": [],
      "name": "InvalidAmountOut",
      "type": "error"
    },
    {
      "inputs": [],
      "name": "InvalidAmounts",
      "type": "error"
    },
    {
      "anonymous": false,
      "inputs": [
        {
          "indexed": true,
          "internalType": "uint256[]",
          "name": "qoutes",
          "type": "uint256[]"
        },
        {
          "indexed": true,
          "internalType": "address",
          "name": "poolAddress",
          "type": "address"
        }
      ],
      "name": "BestQoute",
      "type": "event"
    },
    {
      "anonymous": false,
      "inputs": [
        {
          "indexed": false,
          "internalType": "uint8",
          "name": "version",
          "type": "uint8"
        }
      ],
      "name": "Initialized",
      "type": "event"
    },
    {
      "anonymous": false,
      "inputs": [
        {
          "indexed": true,
          "internalType": "address",
          "name": "previousOwner",
          "type": "address"
        },
        {
          "indexed": true,
          "internalType": "address",
          "name": "newOwner",
          "type": "address"
        }
      ],
      "name": "OwnershipTransferred",
      "type": "event"
    },
    {
      "anonymous": false,
      "inputs": [
        {
          "indexed": false,
          "internalType": "address",
          "name": "account",
          "type": "address"
        }
      ],
      "name": "Paused",
      "type": "event"
    },
    {
      "anonymous": false,
      "inputs": [
        {
          "indexed": true,
          "internalType": "address",
          "name": "tokenIn",
          "type": "address"
        },
        {
          "indexed": true,
          "internalType": "address",
          "name": "tokenOut",
          "type": "address"
        },
        {
          "indexed": true,
          "internalType": "uint256",
          "name": "amountOut",
          "type": "uint256"
        }
      ],
      "name": "Swap",
      "type": "event"
    },
    {
      "anonymous": false,
      "inputs": [
        {
          "indexed": false,
          "internalType": "address",
          "name": "account",
          "type": "address"
        }
      ],
      "name": "Unpaused",
      "type": "event"
    },
    {
      "inputs": [
        {
          "internalType": "uint256[]",
          "name": "numbers",
          "type": "uint256[]"
        }
      ],
      "name": "calculatePercentageSplit",
      "outputs": [
        {
          "internalType": "uint256[]",
          "name": "",
          "type": "uint256[]"
        }
      ],
      "stateMutability": "pure",
      "type": "function"
    },
    {
      "inputs": [
        {
          "internalType": "uint256",
          "name": "amount",
          "type": "uint256"
        },
        {
          "internalType": "uint256",
          "name": "percent",
          "type": "uint256"
        },
        {
          "internalType": "uint256",
          "name": "total",
          "type": "uint256"
        }
      ],
      "name": "getAmount",
      "outputs": [
        {
          "internalType": "uint256",
          "name": "",
          "type": "uint256"
        }
      ],
      "stateMutability": "pure",
      "type": "function"
    },
    {
      "inputs": [
        {
          "internalType": "uint256",
          "name": "amount",
          "type": "uint256"
        },
        {
          "internalType": "uint24",
          "name": "poolFee",
          "type": "uint24"
        }
      ],
      "name": "getQouteTokenInToTokenOut",
      "outputs": [
        {
          "internalType": "uint256[]",
          "name": "",
          "type": "uint256[]"
        },
        {
          "internalType": "address",
          "name": "",
          "type": "address"
        }
      ],
      "stateMutability": "nonpayable",
      "type": "function"
    },
    {
      "inputs": [
        {
          "components": [
            {
              "internalType": "address",
              "name": "tokenIn",
              "type": "address"
            },
            {
              "internalType": "address",
              "name": "tokenOut",
              "type": "address"
            },
            {
              "internalType": "address",
              "name": "qouter",
              "type": "address"
            },
            {
              "internalType": "address",
              "name": "tokenInPool",
              "type": "address"
            },
            {
              "internalType": "address",
              "name": "tokenOutPool",
              "type": "address"
            },
            {
              "internalType": "uint24",
              "name": "poolFee",
              "type": "uint24"
            },
            {
              "internalType": "contract ISwapRouter",
              "name": "uniswap",
              "type": "address"
            },
            {
              "internalType": "contract IQuoter",
              "name": "uniswapQuoter",
              "type": "address"
            },
            {
              "internalType": "contract ISwap",
              "name": "curveSwap",
              "type": "address"
            },
            {
              "internalType": "contract IUniswapV2Router01",
              "name": "sushiSwapRouter",
              "type": "address"
            },
            {
              "internalType": "contract IProvider",
              "name": "exchangeProvider",
              "type": "address"
            },
            {
              "internalType": "contract IUniversalRouter",
              "name": "universalRouter",
              "type": "address"
            },
            {
              "internalType": "contract IPermitV2",
              "name": "permitV2",
              "type": "address"
            }
          ],
          "internalType": "struct InitParams",
          "name": "params",
          "type": "tuple"
        }
      ],
      "name": "initialize",
      "outputs": [],
      "stateMutability": "nonpayable",
      "type": "function"
    },
    {
      "inputs": [],
      "name": "owner",
      "outputs": [
        {
          "internalType": "address",
          "name": "",
          "type": "address"
        }
      ],
      "stateMutability": "view",
      "type": "function"
    },
    {
      "inputs": [],
      "name": "pause",
      "outputs": [],
      "stateMutability": "nonpayable",
      "type": "function"
    },
    {
      "inputs": [],
      "name": "paused",
      "outputs": [
        {
          "internalType": "bool",
          "name": "",
          "type": "bool"
        }
      ],
      "stateMutability": "view",
      "type": "function"
    },
    {
      "inputs": [],
      "name": "qouterParams",
      "outputs": [
        {
          "internalType": "address",
          "name": "tokenIn",
          "type": "address"
        },
        {
          "internalType": "address",
          "name": "tokenOut",
          "type": "address"
        },
        {
          "internalType": "address",
          "name": "qouter",
          "type": "address"
        },
        {
          "internalType": "address",
          "name": "tokenInPool",
          "type": "address"
        },
        {
          "internalType": "address",
          "name": "tokenOutPool",
          "type": "address"
        },
        {
          "internalType": "uint24",
          "name": "poolFee",
          "type": "uint24"
        },
        {
          "internalType": "contract ISwapRouter",
          "name": "uniswap",
          "type": "address"
        },
        {
          "internalType": "contract IQuoter",
          "name": "uniswapQuoter",
          "type": "address"
        },
        {
          "internalType": "contract ISwap",
          "name": "curveSwap",
          "type": "address"
        },
        {
          "internalType": "contract IUniswapV2Router01",
          "name": "sushiSwapRouter",
          "type": "address"
        },
        {
          "internalType": "contract IProvider",
          "name": "exchangeProvider",
          "type": "address"
        },
        {
          "internalType": "contract IUniversalRouter",
          "name": "universalRouter",
          "type": "address"
        },
        {
          "internalType": "contract IPermitV2",
          "name": "permitV2",
          "type": "address"
        }
      ],
      "stateMutability": "view",
      "type": "function"
    },
    {
      "inputs": [],
      "name": "renounceOwnership",
      "outputs": [],
      "stateMutability": "nonpayable",
      "type": "function"
    },
    {
      "inputs": [],
      "name": "swapExactETHToTokenOut",
      "outputs": [
        {
          "internalType": "uint256",
          "name": "amountOut",
          "type": "uint256"
        }
      ],
      "stateMutability": "payable",
      "type": "function"
    },
    {
      "inputs": [
        {
          "internalType": "address",
          "name": "newOwner",
          "type": "address"
        }
      ],
      "name": "transferOwnership",
      "outputs": [],
      "stateMutability": "nonpayable",
      "type": "function"
    },
    {
      "inputs": [],
      "name": "unpause",
      "outputs": [],
      "stateMutability": "nonpayable",
      "type": "function"
    }
  ],
  "bytecode": {
    "object": "0x608060405234801561001057600080fd5b506121d6806100206000396000f3fe6080604052600436106100c75760003560e01c80638da5cb5b11610074578063ec7f061d1161004e578063ec7f061d14610213578063efffa58d1461021b578063f2fde38b1461033f57600080fd5b80638da5cb5b14610183578063c126897a146101b8578063d70ce67f146101e557600080fd5b80635c975abb116100a55780635c975abb14610136578063715018a6146101595780638456cb591461016e57600080fd5b80630ebbe798146100cc57806329c45cb6146100ee5780633f4ba83a14610121575b600080fd5b3480156100d857600080fd5b506100ec6100e7366004611c1f565b61035f565b005b3480156100fa57600080fd5b5061010e610109366004611d1d565b61066d565b6040519081526020015b60405180910390f35b34801561012d57600080fd5b506100ec6106b0565b34801561014257600080fd5b5060335460ff166040519015158152602001610118565b34801561016557600080fd5b506100ec6106c2565b34801561017a57600080fd5b506100ec6106d4565b34801561018f57600080fd5b5060655460405173ffffffffffffffffffffffffffffffffffffffff9091168152602001610118565b3480156101c457600080fd5b506101d86101d3366004611d6d565b6106e4565b6040516101189190611e3e565b3480156101f157600080fd5b50610205610200366004611e58565b6107f0565b604051610118929190611e84565b61010e610bfb565b34801561022757600080fd5b50609754609854609954609a54609b54609c54609d54609e54609f5460a05460a15460a2546102b19b73ffffffffffffffffffffffffffffffffffffffff9081169b81169a811699811698818116987401000000000000000000000000000000000000000090910462ffffff1697908216969082169590821694908216939082169290821691168d565b6040805173ffffffffffffffffffffffffffffffffffffffff9e8f1681529c8e1660208e01529a8d169a8c019a909a52978b1660608b0152958a1660808a015262ffffff90941660a089015291881660c0880152871660e08701528616610100860152851661012085015284166101408401528316610160830152919091166101808201526101a001610118565b34801561034b57600080fd5b506100ec61035a366004611ebc565b6112d1565b600054610100900460ff161580801561037f5750600054600160ff909116105b806103995750303b158015610399575060005460ff166001145b61042a576040517f08c379a000000000000000000000000000000000000000000000000000000000815260206004820152602e60248201527f496e697469616c697a61626c653a20636f6e747261637420697320616c72656160448201527f647920696e697469616c697a656400000000000000000000000000000000000060648201526084015b60405180910390fd5b600080547fffffffffffffffffffffffffffffffffffffffffffffffffffffffffffffff00166001179055801561048857600080547fffffffffffffffffffffffffffffffffffffffffffffffffffffffffffff00ff166101001790555b81516097805473ffffffffffffffffffffffffffffffffffffffff9283167fffffffffffffffffffffffff0000000000000000000000000000000000000000918216179091556020840151609880549184169183169190911790556040840151609980549184169183169190911790556060840151609a80549184169183169190911790556080840151609b805460a08088015162ffffff1674010000000000000000000000000000000000000000027fffffffffffffffffff00000000000000000000000000000000000000000000009092169386169390931717905560c0850151609c805491851691841691909117905560e0850151609d8054918516918416919091179055610100850151609e8054918516918416919091179055610120850151609f8054918516918416919091179055610140850151815490841690831617905561016084015160a1805491841691831691909117905561018084015160a280549190931691161790556105fe611388565b610606611427565b801561066957600080547fffffffffffffffffffffffffffffffffffffffffffffffffffffffffffff00ff169055604051600181527f7f26b83ff96e1f2b6a682f133852f6798a09c465da95921460cefb38474024989060200160405180910390a15b5050565b6000610681670de0b6b3a764000083611f08565b670de0b6b3a76400006106948587611f08565b61069e9190611f08565b6106a89190611f25565b949350505050565b6106b86114c6565b6106c0611547565b565b6106ca6114c6565b6106c060006115c4565b6106dc6114c6565b6106c061163b565b6060600080835167ffffffffffffffff81111561070357610703611b32565b60405190808252806020026020018201604052801561072c578160200160208202803683370190505b50905060005b84518110156107745784818151811061074d5761074d611f60565b6020026020010151836107609190611f8f565b92508061076c81611fa2565b915050610732565b5060005b84518110156107e85782670de0b6b3a764000086838151811061079d5761079d611f60565b60200260200101516107af9190611f08565b6107b99190611f25565b8282815181106107cb576107cb611f60565b6020908102919091010152806107e081611fa2565b915050610778565b509392505050565b609d546097546098546040517ff7729d4300000000000000000000000000000000000000000000000000000000815273ffffffffffffffffffffffffffffffffffffffff9283166004820152908216602482015262ffffff8416604482015260648101859052600060848201819052606093909283928392919091169063f7729d439060a4016020604051808303816000875af1158015610895573d6000803e3d6000fd5b505050506040513d601f19601f820116820180604052508101906108b99190611fda565b609e546097546098546040517f4e21df7500000000000000000000000000000000000000000000000000000000815273ffffffffffffffffffffffffffffffffffffffff92831660048201529082166024820152604481018a905292935060009283929190911690634e21df759060640160408051808303816000875af1158015610948573d6000803e3d6000fd5b505050506040513d601f19601f8201168201806040525081019061096c9190611ff3565b604080516002808252606082018352939550919350600092906020830190803683375050609754825192935073ffffffffffffffffffffffffffffffffffffffff16918391506000906109c1576109c1611f60565b73ffffffffffffffffffffffffffffffffffffffff92831660209182029290920101526098548251911690829060019081106109ff576109ff611f60565b73ffffffffffffffffffffffffffffffffffffffff9283166020918202929092010152609f546040517fd06ca61f000000000000000000000000000000000000000000000000000000008152600092919091169063d06ca61f90610a69908d908690600401612067565b600060405180830381865afa158015610a86573d6000803e3d6000fd5b505050506040513d6000823e601f3d9081017fffffffffffffffffffffffffffffffffffffffffffffffffffffffffffffffe0168201604052610acc9190810190612080565b9050600081600181518110610ae357610ae3611f60565b602002602001015190506000600367ffffffffffffffff811115610b0957610b09611b32565b604051908082528060200260200182016040528015610b32578160200160208202803683370190505b5090508181600081518110610b4957610b49611f60565b6020026020010181815250508481600181518110610b6957610b69611f60565b6020026020010181815250508681600281518110610b8957610b89611f60565b6020026020010181815250508573ffffffffffffffffffffffffffffffffffffffff1681604051610bba9190612106565b604051908190038120907fe9cda41294389ae04d7c338828fa3884d5ff08cf3e0f8135b1a3bb98255dcc8f90600090a39b949a509398505050505050505050565b6000610c05611696565b34600003610c3f576040517f2c5211c600000000000000000000000000000000000000000000000000000000815260040160405180910390fd5b609754604080517fd0e30db00000000000000000000000000000000000000000000000000000000081529051349273ffffffffffffffffffffffffffffffffffffffff169163d0e30db091849160048082019260009290919082900301818588803b158015610cad57600080fd5b505af1158015610cc1573d6000803e3d6000fd5b5050609b546060935060009250610cf79150849074010000000000000000000000000000000000000000900462ffffff166107f0565b90925090506000610d07836106e4565b90506000610d1484611703565b90506000610d3d8684600081518110610d2f57610d2f611f60565b60200260200101518861066d565b90506000610d668785600181518110610d5857610d58611f60565b60200260200101518961066d565b90506000610d8f8886600281518110610d8157610d81611f60565b60200260200101518a61066d565b609754609c54919250610dbc9173ffffffffffffffffffffffffffffffffffffffff9182169116836117f5565b604080516101008101825260975473ffffffffffffffffffffffffffffffffffffffff9081168252609854166020820152609b5474010000000000000000000000000000000000000000900462ffffff169181019190915233606082015260009060808101610e2c42603c611f8f565b81526020808201859052600160408084019190915260006060938401819052609c5482517f414bf389000000000000000000000000000000000000000000000000000000008152865173ffffffffffffffffffffffffffffffffffffffff908116600483015294870151851660248201529286015162ffffff16604484015293850151831660648301526080850151608483015260a085015160a483015260c085015160c483015260e0850151831660e483015293945091169063414bf38990610104016020604051808303816000875af1158015610f0f573d6000803e3d6000fd5b505050506040513d601f19601f82011682018060405250810190610f339190611fda565b609754609e54919250610f609173ffffffffffffffffffffffffffffffffffffffff9182169116866117f5565b609e54609754609854604080517f1a4c1ca300000000000000000000000000000000000000000000000000000000815273ffffffffffffffffffffffffffffffffffffffff8d811660048301529384166024820152918316604483015260648201889052600160848301523360a4830152516000939290921691631a4c1ca39160c480820192602092909190829003018187875af1158015611006573d6000803e3d6000fd5b505050506040513d601f19601f8201168201806040525081019061102a9190611fda565b609754609f549192506110579173ffffffffffffffffffffffffffffffffffffffff9182169116886117f5565b6040805160028082526060820183526000926020830190803683375050609754825192935073ffffffffffffffffffffffffffffffffffffffff16918391506000906110a5576110a5611f60565b73ffffffffffffffffffffffffffffffffffffffff92831660209182029290920101526098548251911690829060019081106110e3576110e3611f60565b73ffffffffffffffffffffffffffffffffffffffff9283166020918202929092010152609f54600091166338ed1739896001853361112242603c611f8f565b6040518663ffffffff1660e01b815260040161114295949392919061213c565b6000604051808303816000875af1158015611161573d6000803e3d6000fd5b505050506040513d6000823e601f3d9081017fffffffffffffffffffffffffffffffffffffffffffffffffffffffffffffffe01682016040526111a79190810190612080565b90506000816000815181106111be576111be611f60565b602002602001015190508085856111d59190611f8f565b6111df9190611f8f565b9e508e609760010160009054906101000a900473ffffffffffffffffffffffffffffffffffffffff1673ffffffffffffffffffffffffffffffffffffffff16609760000160009054906101000a900473ffffffffffffffffffffffffffffffffffffffff1673ffffffffffffffffffffffffffffffffffffffff167fea368a40e9570069bb8e6511d668293ad2e1f03b0d982431fd223de9f3b70ca660405160405180910390a4505050505050838910156112c6576040517fd856fc5a00000000000000000000000000000000000000000000000000000000815260040160405180910390fd5b505050505050505090565b6112d96114c6565b73ffffffffffffffffffffffffffffffffffffffff811661137c576040517f08c379a000000000000000000000000000000000000000000000000000000000815260206004820152602660248201527f4f776e61626c653a206e6577206f776e657220697320746865207a65726f206160448201527f64647265737300000000000000000000000000000000000000000000000000006064820152608401610421565b611385816115c4565b50565b600054610100900460ff1661141f576040517f08c379a000000000000000000000000000000000000000000000000000000000815260206004820152602b60248201527f496e697469616c697a61626c653a20636f6e7472616374206973206e6f74206960448201527f6e697469616c697a696e670000000000000000000000000000000000000000006064820152608401610421565b6106c0611965565b600054610100900460ff166114be576040517f08c379a000000000000000000000000000000000000000000000000000000000815260206004820152602b60248201527f496e697469616c697a61626c653a20636f6e7472616374206973206e6f74206960448201527f6e697469616c697a696e670000000000000000000000000000000000000000006064820152608401610421565b6106c0611a05565b60655473ffffffffffffffffffffffffffffffffffffffff1633146106c0576040517f08c379a000000000000000000000000000000000000000000000000000000000815260206004820181905260248201527f4f776e61626c653a2063616c6c6572206973206e6f7420746865206f776e65726044820152606401610421565b61154f611ac6565b603380547fffffffffffffffffffffffffffffffffffffffffffffffffffffffffffffff001690557f5db9ee0a495bf2e6ff9c91a7834c1ba4fdd244a5e8aa4e537bd38aeae4b073aa335b60405173ffffffffffffffffffffffffffffffffffffffff909116815260200160405180910390a1565b6065805473ffffffffffffffffffffffffffffffffffffffff8381167fffffffffffffffffffffffff0000000000000000000000000000000000000000831681179093556040519116919082907f8be0079c531659141344cd1fd0a4f28419497f9722a3daafe3b4186f6b6457e090600090a35050565b611643611696565b603380547fffffffffffffffffffffffffffffffffffffffffffffffffffffffffffffff001660011790557f62e78cea01bee320cd4e420270b5ea74000d11b0c9f74754ebdbfc544b05a25861159a3390565b60335460ff16156106c0576040517f08c379a000000000000000000000000000000000000000000000000000000000815260206004820152601060248201527f5061757361626c653a20706175736564000000000000000000000000000000006044820152606401610421565b60008082511161176f576040517f08c379a000000000000000000000000000000000000000000000000000000000815260206004820152601760248201527f4172726179206d757374206e6f7420626520656d7074790000000000000000006044820152606401610421565b60008260008151811061178457611784611f60565b602002602001015190506000600190506000845190505b808210156117ec57828583815181106117b6576117b6611f60565b602002602001015111156117e1578482815181106117d6576117d6611f60565b602002602001015192505b60019091019061179b565b50909392505050565b6040805173ffffffffffffffffffffffffffffffffffffffff8481166024830152604480830185905283518084039091018152606490920183526020820180517bffffffffffffffffffffffffffffffffffffffffffffffffffffffff167f095ea7b300000000000000000000000000000000000000000000000000000000179052915160009283929087169161188c9190612185565b6000604051808303816000865af19150503d80600081146118c9576040519150601f19603f3d011682016040523d82523d6000602084013e6118ce565b606091505b50915091508180156118f85750805115806118f85750808060200190518101906118f891906121b4565b61195e576040517f08c379a000000000000000000000000000000000000000000000000000000000815260206004820152600260248201527f53410000000000000000000000000000000000000000000000000000000000006044820152606401610421565b5050505050565b600054610100900460ff166119fc576040517f08c379a000000000000000000000000000000000000000000000000000000000815260206004820152602b60248201527f496e697469616c697a61626c653a20636f6e7472616374206973206e6f74206960448201527f6e697469616c697a696e670000000000000000000000000000000000000000006064820152608401610421565b6106c0336115c4565b600054610100900460ff16611a9c576040517f08c379a000000000000000000000000000000000000000000000000000000000815260206004820152602b60248201527f496e697469616c697a61626c653a20636f6e7472616374206973206e6f74206960448201527f6e697469616c697a696e670000000000000000000000000000000000000000006064820152608401610421565b603380547fffffffffffffffffffffffffffffffffffffffffffffffffffffffffffffff00169055565b60335460ff166106c0576040517f08c379a000000000000000000000000000000000000000000000000000000000815260206004820152601460248201527f5061757361626c653a206e6f74207061757365640000000000000000000000006044820152606401610421565b7f4e487b7100000000000000000000000000000000000000000000000000000000600052604160045260246000fd5b6040516101a0810167ffffffffffffffff81118282101715611b8557611b85611b32565b60405290565b604051601f82017fffffffffffffffffffffffffffffffffffffffffffffffffffffffffffffffe016810167ffffffffffffffff81118282101715611bd257611bd2611b32565b604052919050565b73ffffffffffffffffffffffffffffffffffffffff8116811461138557600080fd5b8035611c0781611bda565b919050565b803562ffffff81168114611c0757600080fd5b60006101a08284031215611c3257600080fd5b611c3a611b61565b611c4383611bfc565b8152611c5160208401611bfc565b6020820152611c6260408401611bfc565b6040820152611c7360608401611bfc565b6060820152611c8460808401611bfc565b6080820152611c9560a08401611c0c565b60a0820152611ca660c08401611bfc565b60c0820152611cb760e08401611bfc565b60e0820152610100611cca818501611bfc565b90820152610120611cdc848201611bfc565b90820152610140611cee848201611bfc565b90820152610160611d00848201611bfc565b90820152610180611d12848201611bfc565b908201529392505050565b600080600060608486031215611d3257600080fd5b505081359360208301359350604090920135919050565b600067ffffffffffffffff821115611d6357611d63611b32565b5060051b60200190565b60006020808385031215611d8057600080fd5b823567ffffffffffffffff811115611d9757600080fd5b8301601f81018513611da857600080fd5b8035611dbb611db682611d49565b611b8b565b81815260059190911b82018301908381019087831115611dda57600080fd5b928401925b82841015611df857833582529284019290840190611ddf565b979650505050505050565b600081518084526020808501945080840160005b83811015611e3357815187529582019590820190600101611e17565b509495945050505050565b602081526000611e516020830184611e03565b9392505050565b60008060408385031215611e6b57600080fd5b82359150611e7b60208401611c0c565b90509250929050565b604081526000611e976040830185611e03565b905073ffffffffffffffffffffffffffffffffffffffff831660208301529392505050565b600060208284031215611ece57600080fd5b8135611e5181611bda565b7f4e487b7100000000000000000000000000000000000000000000000000000000600052601160045260246000fd5b8082028115828204841417611f1f57611f1f611ed9565b92915050565b600082611f5b577f4e487b7100000000000000000000000000000000000000000000000000000000600052601260045260246000fd5b500490565b7f4e487b7100000000000000000000000000000000000000000000000000000000600052603260045260246000fd5b80820180821115611f1f57611f1f611ed9565b60007fffffffffffffffffffffffffffffffffffffffffffffffffffffffffffffffff8203611fd357611fd3611ed9565b5060010190565b600060208284031215611fec57600080fd5b5051919050565b6000806040838503121561200657600080fd5b825161201181611bda565b6020939093015192949293505050565b600081518084526020808501945080840160005b83811015611e3357815173ffffffffffffffffffffffffffffffffffffffff1687529582019590820190600101612035565b8281526040602082015260006106a86040830184612021565b6000602080838503121561209357600080fd5b825167ffffffffffffffff8111156120aa57600080fd5b8301601f810185136120bb57600080fd5b80516120c9611db682611d49565b81815260059190911b820183019083810190878311156120e857600080fd5b928401925b82841015611df8578351825292840192908401906120ed565b815160009082906020808601845b8381101561213057815185529382019390820190600101612114565b50929695505050505050565b85815284602082015260a06040820152600061215b60a0830186612021565b73ffffffffffffffffffffffffffffffffffffffff94909416606083015250608001529392505050565b6000825160005b818110156121a6576020818601810151858301520161218c565b506000920191825250919050565b6000602082840312156121c657600080fd5b81518015158114611e5157600080fd",
    "linkReferences": {}
  },
  "methodIdentifiers": {
    "calculatePercentageSplit(uint256[])": "c126897a",
    "getAmount(uint256,uint256,uint256)": "29c45cb6",
    "getQouteTokenInToTokenOut(uint256,uint24)": "d70ce67f",
    "initialize((address,address,address,address,address,uint24,address,address,address,address,address,address,address))": "0ebbe798",
    "owner()": "8da5cb5b",
    "pause()": "8456cb59",
    "paused()": "5c975abb",
    "qouterParams()": "efffa58d",
    "renounceOwnership()": "715018a6",
    "swapExactETHToTokenOut()": "ec7f061d",
    "transferOwnership(address)": "f2fde38b",
    "unpause()": "3f4ba83a"
  },
  "id": 36
}