{
  "abi": [
    {
      "anonymous": false,
      "inputs": [
        {
          "indexed": false,
          "internalType": "uint8",
          "name": "version",
          "type": "uint8"
        }
      ],
      "name": "Initialized",
      "type": "event"
    },
    {
      "anonymous": false,
      "inputs": [
        {
          "indexed": true,
          "internalType": "address",
          "name": "previousOwner",
          "type": "address"
        },
        {
          "indexed": true,
          "internalType": "address",
          "name": "newOwner",
          "type": "address"
        }
      ],
      "name": "OwnershipTransferred",
      "type": "event"
    },
    {
      "anonymous": false,
      "inputs": [
        {
          "indexed": false,
          "internalType": "address",
          "name": "account",
          "type": "address"
        }
      ],
      "name": "Paused",
      "type": "event"
    },
    {
      "anonymous": false,
      "inputs": [
        {
          "indexed": false,
          "internalType": "address",
          "name": "account",
          "type": "address"
        }
      ],
      "name": "Unpaused",
      "type": "event"
    },
    {
      "inputs": [
        {
          "internalType": "uint256",
          "name": "amount",
          "type": "uint256"
        },
        {
          "internalType": "uint24",
          "name": "poolFee",
          "type": "uint24"
        }
      ],
      "name": "getQouteTokenInToTokenOut",
      "outputs": [
        {
          "internalType": "uint256",
          "name": "quote",
          "type": "uint256"
        }
      ],
      "stateMutability": "payable",
      "type": "function"
    },
    {
      "inputs": [
        {
          "components": [
            {
              "internalType": "address",
              "name": "tokenIn",
              "type": "address"
            },
            {
              "internalType": "address",
              "name": "tokenOut",
              "type": "address"
            },
            {
              "internalType": "address",
              "name": "qouter",
              "type": "address"
            },
            {
              "internalType": "uint24",
              "name": "poolFee",
              "type": "uint24"
            },
            {
              "internalType": "contract ISwapRouter",
              "name": "swapRouter",
              "type": "address"
            },
            {
              "internalType": "contract IQuoter",
              "name": "quoter",
              "type": "address"
            }
          ],
          "internalType": "struct InitParams",
          "name": "params",
          "type": "tuple"
        }
      ],
      "name": "initialize",
      "outputs": [],
      "stateMutability": "nonpayable",
      "type": "function"
    },
    {
      "inputs": [],
      "name": "owner",
      "outputs": [
        {
          "internalType": "address",
          "name": "",
          "type": "address"
        }
      ],
      "stateMutability": "view",
      "type": "function"
    },
    {
      "inputs": [],
      "name": "pause",
      "outputs": [],
      "stateMutability": "nonpayable",
      "type": "function"
    },
    {
      "inputs": [],
      "name": "paused",
      "outputs": [
        {
          "internalType": "bool",
          "name": "",
          "type": "bool"
        }
      ],
      "stateMutability": "view",
      "type": "function"
    },
    {
      "inputs": [],
      "name": "qouterParams",
      "outputs": [
        {
          "internalType": "address",
          "name": "tokenIn",
          "type": "address"
        },
        {
          "internalType": "address",
          "name": "tokenOut",
          "type": "address"
        },
        {
          "internalType": "address",
          "name": "qouter",
          "type": "address"
        },
        {
          "internalType": "uint24",
          "name": "poolFee",
          "type": "uint24"
        },
        {
          "internalType": "contract ISwapRouter",
          "name": "swapRouter",
          "type": "address"
        },
        {
          "internalType": "contract IQuoter",
          "name": "quoter",
          "type": "address"
        }
      ],
      "stateMutability": "view",
      "type": "function"
    },
    {
      "inputs": [],
      "name": "renounceOwnership",
      "outputs": [],
      "stateMutability": "nonpayable",
      "type": "function"
    },
    {
      "inputs": [
        {
          "internalType": "uint256",
          "name": "amountIn",
          "type": "uint256"
        }
      ],
      "name": "swapExactInputSingle",
      "outputs": [
        {
          "internalType": "uint256",
          "name": "amountOut",
          "type": "uint256"
        }
      ],
      "stateMutability": "nonpayable",
      "type": "function"
    },
    {
      "inputs": [
        {
          "internalType": "uint256",
          "name": "amountOut",
          "type": "uint256"
        },
        {
          "internalType": "uint256",
          "name": "amountInMaximum",
          "type": "uint256"
        }
      ],
      "name": "swapExactOutputSingle",
      "outputs": [
        {
          "internalType": "uint256",
          "name": "amountIn",
          "type": "uint256"
        }
      ],
      "stateMutability": "nonpayable",
      "type": "function"
    },
    {
      "inputs": [
        {
          "internalType": "address",
          "name": "newOwner",
          "type": "address"
        }
      ],
      "name": "transferOwnership",
      "outputs": [],
      "stateMutability": "nonpayable",
      "type": "function"
    },
    {
      "inputs": [],
      "name": "unpause",
      "outputs": [],
      "stateMutability": "nonpayable",
      "type": "function"
    }
  ],
  "bytecode": {
    "object": "0x608060405234801561001057600080fd5b50611524806100206000396000f3fe6080604052600436106100bc5760003560e01c80638da5cb5b11610074578063eac9c9fe1161004e578063eac9c9fe146101c0578063efffa58d146101e0578063f2fde38b1461029b57600080fd5b80638da5cb5b14610158578063c4b69a181461018d578063d70ce67f146101ad57600080fd5b8063715018a6116100a5578063715018a61461010057806373bd43ad146101155780638456cb591461014357600080fd5b80633f4ba83a146100c15780635c975abb146100d8575b600080fd5b3480156100cd57600080fd5b506100d66102bb565b005b3480156100e457600080fd5b5060335460ff1660405190151581526020015b60405180910390f35b34801561010c57600080fd5b506100d66102cd565b34801561012157600080fd5b50610135610130366004611270565b6102df565b6040519081526020016100f7565b34801561014f57600080fd5b506100d6610439565b34801561016457600080fd5b5060655460405173ffffffffffffffffffffffffffffffffffffffff90911681526020016100f7565b34801561019957600080fd5b506101356101a8366004611289565b610449565b6101356101bb3660046112c3565b610605565b3480156101cc57600080fd5b506100d66101db36600461131c565b6106da565b3480156101ec57600080fd5b50609754609854609954609a54609b546102479473ffffffffffffffffffffffffffffffffffffffff90811694811693818116937401000000000000000000000000000000000000000090910462ffffff1692908216911686565b6040805173ffffffffffffffffffffffffffffffffffffffff978816815295871660208701529386169385019390935262ffffff9091166060840152831660808301529190911660a082015260c0016100f7565b3480156102a757600080fd5b506100d66102b63660046113e2565b61093d565b6102c36109da565b6102cb610a41565b565b6102d56109da565b6102cb6000610abe565b60006102e9610b35565b60975461030e9073ffffffffffffffffffffffffffffffffffffffff16333085610b88565b609754609a546103389173ffffffffffffffffffffffffffffffffffffffff908116911684610ce7565b604080516101008101825260975473ffffffffffffffffffffffffffffffffffffffff90811682526098548116602083015260995474010000000000000000000000000000000000000000900462ffffff168284015233606083015242608083015260a08201859052600060c0830181905260e0830152609a5492517f414bf3890000000000000000000000000000000000000000000000000000000081529192169063414bf389906103ef9084906004016113ff565b6020604051808303816000875af115801561040e573d6000803e3d6000fd5b505050506040513d601f19601f820116820180604052508101906104329190611480565b9392505050565b6104416109da565b6102cb610e3d565b6000610453610b35565b6097546104789073ffffffffffffffffffffffffffffffffffffffff16333085610b88565b609754609a546104a29173ffffffffffffffffffffffffffffffffffffffff908116911684610ce7565b604080516101008101825260975473ffffffffffffffffffffffffffffffffffffffff90811682526098548116602083015260995474010000000000000000000000000000000000000000900462ffffff168284015233606083015242608083015260a0820186905260c08201859052600060e0830152609a5492517fdb3e21980000000000000000000000000000000000000000000000000000000081529192169063db3e2198906105599084906004016113ff565b6020604051808303816000875af1158015610578573d6000803e3d6000fd5b505050506040513d601f19601f8201168201806040525081019061059c9190611480565b9150828210156105fe57609754609a546105d19173ffffffffffffffffffffffffffffffffffffffff90811691166000610ce7565b6097546105fe9073ffffffffffffffffffffffffffffffffffffffff16336105f98587611499565b610e98565b5092915050565b609854609754609b546040517ff7729d4300000000000000000000000000000000000000000000000000000000815273ffffffffffffffffffffffffffffffffffffffff938416600482018190529284166024820181905262ffffff8616604483015260648201879052600060848301819052949092869286929091169063f7729d439060a4016020604051808303816000875af11580156106ab573d6000803e3d6000fd5b505050506040513d601f19601f820116820180604052508101906106cf9190611480565b979650505050505050565b600054610100900460ff16158080156106fa5750600054600160ff909116105b806107145750303b158015610714575060005460ff166001145b61078b5760405162461bcd60e51b815260206004820152602e60248201527f496e697469616c697a61626c653a20636f6e747261637420697320616c72656160448201527f647920696e697469616c697a656400000000000000000000000000000000000060648201526084015b60405180910390fd5b600080547fffffffffffffffffffffffffffffffffffffffffffffffffffffffffffffff0016600117905580156107e957600080547fffffffffffffffffffffffffffffffffffffffffffffffffffffffffffff00ff166101001790555b81516097805473ffffffffffffffffffffffffffffffffffffffff9283167fffffffffffffffffffffffff000000000000000000000000000000000000000091821617909155602084015160988054918416918316919091179055604084015160998054606087015162ffffff1674010000000000000000000000000000000000000000027fffffffffffffffffff0000000000000000000000000000000000000000000000909116928516929092179190911790556080840151609a805491841691831691909117905560a0840151609b80549190931691161790556108ce610fe7565b6108d661106c565b801561093957600080547fffffffffffffffffffffffffffffffffffffffffffffffffffffffffffff00ff169055604051600181527f7f26b83ff96e1f2b6a682f133852f6798a09c465da95921460cefb38474024989060200160405180910390a15b5050565b6109456109da565b73ffffffffffffffffffffffffffffffffffffffff81166109ce5760405162461bcd60e51b815260206004820152602660248201527f4f776e61626c653a206e6577206f776e657220697320746865207a65726f206160448201527f64647265737300000000000000000000000000000000000000000000000000006064820152608401610782565b6109d781610abe565b50565b60655473ffffffffffffffffffffffffffffffffffffffff1633146102cb5760405162461bcd60e51b815260206004820181905260248201527f4f776e61626c653a2063616c6c6572206973206e6f7420746865206f776e65726044820152606401610782565b610a496110f1565b603380547fffffffffffffffffffffffffffffffffffffffffffffffffffffffffffffff001690557f5db9ee0a495bf2e6ff9c91a7834c1ba4fdd244a5e8aa4e537bd38aeae4b073aa335b60405173ffffffffffffffffffffffffffffffffffffffff909116815260200160405180910390a1565b6065805473ffffffffffffffffffffffffffffffffffffffff8381167fffffffffffffffffffffffff0000000000000000000000000000000000000000831681179093556040519116919082907f8be0079c531659141344cd1fd0a4f28419497f9722a3daafe3b4186f6b6457e090600090a35050565b60335460ff16156102cb5760405162461bcd60e51b815260206004820152601060248201527f5061757361626c653a20706175736564000000000000000000000000000000006044820152606401610782565b6040805173ffffffffffffffffffffffffffffffffffffffff85811660248301528481166044830152606480830185905283518084039091018152608490920183526020820180517bffffffffffffffffffffffffffffffffffffffffffffffffffffffff167f23b872dd000000000000000000000000000000000000000000000000000000001790529151600092839290881691610c2791906114d3565b6000604051808303816000865af19150503d8060008114610c64576040519150601f19603f3d011682016040523d82523d6000602084013e610c69565b606091505b5091509150818015610c93575080511580610c93575080806020019051810190610c939190611502565b610cdf5760405162461bcd60e51b815260206004820152600360248201527f53544600000000000000000000000000000000000000000000000000000000006044820152606401610782565b505050505050565b6040805173ffffffffffffffffffffffffffffffffffffffff8481166024830152604480830185905283518084039091018152606490920183526020820180517bffffffffffffffffffffffffffffffffffffffffffffffffffffffff167f095ea7b3000000000000000000000000000000000000000000000000000000001790529151600092839290871691610d7e91906114d3565b6000604051808303816000865af19150503d8060008114610dbb576040519150601f19603f3d011682016040523d82523d6000602084013e610dc0565b606091505b5091509150818015610dea575080511580610dea575080806020019051810190610dea9190611502565b610e365760405162461bcd60e51b815260206004820152600260248201527f53410000000000000000000000000000000000000000000000000000000000006044820152606401610782565b5050505050565b610e45610b35565b603380547fffffffffffffffffffffffffffffffffffffffffffffffffffffffffffffff001660011790557f62e78cea01bee320cd4e420270b5ea74000d11b0c9f74754ebdbfc544b05a258610a943390565b6040805173ffffffffffffffffffffffffffffffffffffffff8481166024830152604480830185905283518084039091018152606490920183526020820180517bffffffffffffffffffffffffffffffffffffffffffffffffffffffff167fa9059cbb000000000000000000000000000000000000000000000000000000001790529151600092839290871691610f2f91906114d3565b6000604051808303816000865af19150503d8060008114610f6c576040519150601f19603f3d011682016040523d82523d6000602084013e610f71565b606091505b5091509150818015610f9b575080511580610f9b575080806020019051810190610f9b9190611502565b610e365760405162461bcd60e51b815260206004820152600260248201527f53540000000000000000000000000000000000000000000000000000000000006044820152606401610782565b600054610100900460ff166110645760405162461bcd60e51b815260206004820152602b60248201527f496e697469616c697a61626c653a20636f6e7472616374206973206e6f74206960448201527f6e697469616c697a696e670000000000000000000000000000000000000000006064820152608401610782565b6102cb611143565b600054610100900460ff166110e95760405162461bcd60e51b815260206004820152602b60248201527f496e697469616c697a61626c653a20636f6e7472616374206973206e6f74206960448201527f6e697469616c697a696e670000000000000000000000000000000000000000006064820152608401610782565b6102cb6111c9565b60335460ff166102cb5760405162461bcd60e51b815260206004820152601460248201527f5061757361626c653a206e6f74207061757365640000000000000000000000006044820152606401610782565b600054610100900460ff166111c05760405162461bcd60e51b815260206004820152602b60248201527f496e697469616c697a61626c653a20636f6e7472616374206973206e6f74206960448201527f6e697469616c697a696e670000000000000000000000000000000000000000006064820152608401610782565b6102cb33610abe565b600054610100900460ff166112465760405162461bcd60e51b815260206004820152602b60248201527f496e697469616c697a61626c653a20636f6e7472616374206973206e6f74206960448201527f6e697469616c697a696e670000000000000000000000000000000000000000006064820152608401610782565b603380547fffffffffffffffffffffffffffffffffffffffffffffffffffffffffffffff00169055565b60006020828403121561128257600080fd5b5035919050565b6000806040838503121561129c57600080fd5b50508035926020909101359150565b803562ffffff811681146112be57600080fd5b919050565b600080604083850312156112d657600080fd5b823591506112e6602084016112ab565b90509250929050565b73ffffffffffffffffffffffffffffffffffffffff811681146109d757600080fd5b80356112be816112ef565b600060c0828403121561132e57600080fd5b60405160c0810181811067ffffffffffffffff82111715611378577f4e487b7100000000000000000000000000000000000000000000000000000000600052604160045260246000fd5b60405261138483611311565b815261139260208401611311565b60208201526113a360408401611311565b60408201526113b4606084016112ab565b60608201526113c560808401611311565b60808201526113d660a08401611311565b60a08201529392505050565b6000602082840312156113f457600080fd5b8135610432816112ef565b610100810161147a828473ffffffffffffffffffffffffffffffffffffffff80825116835280602083015116602084015262ffffff60408301511660408401528060608301511660608401526080820151608084015260a082015160a084015260c082015160c08401528060e08301511660e0840152505050565b92915050565b60006020828403121561149257600080fd5b5051919050565b8181038181111561147a577f4e487b7100000000000000000000000000000000000000000000000000000000600052601160045260246000fd5b6000825160005b818110156114f457602081860181015185830152016114da565b506000920191825250919050565b60006020828403121561151457600080fd5b8151801515811461043257600080fd",
    "linkReferences": {}
  },
  "methodIdentifiers": {
    "getQouteTokenInToTokenOut(uint256,uint24)": "d70ce67f",
    "initialize((address,address,address,uint24,address,address))": "eac9c9fe",
    "owner()": "8da5cb5b",
    "pause()": "8456cb59",
    "paused()": "5c975abb",
    "qouterParams()": "efffa58d",
    "renounceOwnership()": "715018a6",
    "swapExactInputSingle(uint256)": "73bd43ad",
    "swapExactOutputSingle(uint256,uint256)": "c4b69a18",
    "transferOwnership(address)": "f2fde38b",
    "unpause()": "3f4ba83a"
  },
  "id": 10
}